:020000040000FA
:0600000072EF24F0120073
:020006001200E6
:080008007750030B02E01AEF30
:0800100002F0AFEF21F0120035
:0800180077B48EEF02F072EFE5
:0400200007F01200D3
:0C0024000300F70F00009C010000080022
:100030000000F40F00005D00000003000000004914
:0A004000000078010000120000002B
:06004A007F9E7F9C2C0E3E
:10005000F66E110EF76E0900F5CFABF10A00F5CF81
:10006000ACF10101AB07000EAC5BABC174FF7F804C
:1000700001010101A2510101AB25E96E010101015C
:10008000A3510101AC21EA6E73CFEFFF0101000E15
:10009000D880AB55000EAC55E4E3120000015D5171
:1000A000715C01E184D0C00E71140CE07150E66EF9
:1000B000E66A080EE66EB3EC12F0E552E552E55240
:1000C0003F0E711671AA0BD07150E66EE66A090EEA
:1000D000E66EB3EC12F0E552E552E5520DD00101A7
:1000E0000FA30AD07150E66EE66A090EE66E18ECB0
:1000F00013F0E552E552E55271A80BD07150E66E4F
:10010000E66A0A0EE66EB3EC12F0E552E552E552ED
:1001100017D001010FA514D07150E66EE66A0A0EE1
:10012000E66E18EC13F0E552E552E552000EE66E6D
:10013000E66A0C0EE66E18EC13F0E552E552E55255
:1001400071A60BD07150E66EE66A0B0EE66EB3EC4C
:1001500012F0E552E552E5520DD001010FA70AD089
:100160007150E66EE66A0B0EE66E18EC13F0E5527F
:10017000E552E552070E71140BE07150E66EE66A27
:100180001C0EE66EB3EC12F0E552E552E5520DD0CE
:10019000010111A90AD07150E66EE66A1C0EE66EE6
:1001A00018EC13F0E552E552E55271CF5DF0FF0E09
:1001B0001F5C1EE1020E1E5C0FE3060E1E5C0CE2CD
:1001C000020E1E5CE66EE66A180EE66EB3EC12F0E6
:1001D000E552E552E5520AD01E50E66EE66A190E67
:1001E000E66EB3EC12F0E552E552E5521F6A0ED00E
:1001F000FE0E1F5C0BE11E50E66EE66A1B0EE66EFD
:10020000B3EC12F0E552E552E5521F6A7FB23DD0E1
:1002100000015E515F110AE12C0EF66E110EF76EB1
:100220000900F5CF5EF00A00F5CF5FF000015E0730
:10023000000E5F5B5EC074FF7F9E7F9C7F8001012C
:100240000101A25100015E25E96E01010101A351E6
:1002500000015F21EA6EEF50735C17E001010101BC
:10026000A25100015E25E96E01010101A3510001C7
:100270005F21EA6EEF50736E7F84F29E550E7E6EA4
:10028000AA0E7E6E7F82F28E7F941200FDC0A9F1CD
:100290002B0EF66E110EF76E0800F5CFAAF10101D4
:1002A000A95108E00101A9517F0804E30101AA5105
:1002B000070819E20101A951000EF3500101AA112A
:1002C000E66EE66A050EE66EB3EC12F0E552E55214
:1002D000E5520101010EA96F0101AA51070803E2CD
:1002E0000101010EAA6F12001F6A800E6F6EE00EF0
:1002F0006E14800801E0FBD70101AA51050DF3CF70
:10030000F6FFF4CFF7FF9C0EF626480EF722080002
:10031000F504106E0101AA51050DF3CFF6FFF4CFDD
:10032000F7FF9C0EF626480EF722F62A000EF7225B
:100330000800F504400DF35010100E01436F010149
:10034000AA51050DF3CFF6FFF4CFF7FF9C0EF6266A
:10035000480EF722020EF626000EF7220800F504DA
:10036000106E0101AA51050DF3CFF6FFF4CFF7FF90
:100370009C0EF626480EF722030EF626000EF722F4
:100380000800F504080DF350800910100E01446FA9
:100390000101AA51050DF3CFF6FFF4CFF7FF9C0E34
:1003A000F626480EF722040EF626000EF722080065
:1003B000F5040E01456F93949386609E0F01309F64
:1003C0000F0120970F0110970F010097766A776A47
:1003D000786A200E706E240E606E0F01200E306F52
:1003E0000E01E06B0E01E16B0E01E46B0E01E56B9B
:1003F0000E01E86B0E01E96B0E01EC6B0E01ED6B6B
:100400000E01F06B0E01F16B0E01F46B0E01F56B3A
:100410000E01F86B0E01F96B0E01FC6B0E01FD6B0A
:100420006F6AE00E6E1401E0FCD7070E766E030EC5
:10043000786E1200DACFE4FFE2CFDAFFE9CFE4FF13
:10044000EACFE4FF6FCFE4FFE65277A005D07790C4
:100450006F866F846F9204D077926F866F946F82ED
:1004600000EE60F01D6AEE50625C04E1EF50615CEA
:1004700001E108D00A0EE926000EEA221D2A0B0E21
:100480001D5CF1E10B0E1D5C01E33DD00F0EEC1481
:100490001F6E080809E30F0E65141F5C05E0FF0ED0
:1004A0001F6E1D501E6E2FD0100EEF1408E0200E90
:1004B000EF1405E0FE0E1F6E1D501E6E24D0EE8858
:1004C0000F0E651420E01F6E66CFEEFF1F4E1BD08F
:1004D00067CFEEFF1F4E17D068CFEEFF1F4E13D031
:1004E00069CFEEFF1F4E0FD06ACFEEFF1F4E0BD02D
:1004F0006BCFEEFF1F4E07D06CCFEEFF1F4E03D029
:100500006DCFEEFF1F6A609EE552E5CF6FFFE5CF2E
:10051000EAFFE5CFE9FFE5CFDAFF1100D8CFE4FF2E
:10052000E0CFE4FFE46EDACFE4FFE2CFDAFFE9CF19
:10053000E4FFEACFE4FFF6CFE4FFF7CFE4FFF5CF27
:10054000E4FFF3CFE4FFF4CFE4FFFACFE4FF00EEE3
:1005500000F0100EE80403E3EECFE4FFFBD700EE5B
:1005600010F00D0EE80403E3EECFE4FFFBD7E652F4
:10057000779401010051000801E3CBD00F010F0176
:100580002051080B01E0C5D0010100070101AD6B4E
:10059000050E0101AD5D01E3BCD00101AD510B0DB4
:1005A000F3CFE9FFF4CFEAFF410EE926010EEA227C
:1005B000EE52EE52EF50100B01E1A8D00101AD5107
:1005C0000B0DF3CFE9FFF4CFEAFF410EE926010E50
:1005D000EA22EE52EE52EF50200B19E001010651D3
:1005E000071115E0010104510101065D01010551EA
:1005F000010107590CE20101AD51E66EE66A0D0EEC
:10060000E66EB3EC12F0E552E552E55270D001010E
:10061000AD510B0DF3CFE9FFF4CFEAFF410EE92610
:10062000010EEA22EFCF22FF0101AD510B0DF3CFF6
:10063000E9FFF4CFEAFF410EE926010EEA22010E9E
:10064000E926000EEA22EFCF21FF0101AD510B0D8B
:10065000F3CFE9FFF4CFEAFF410EE926010EEA22CB
:10066000EE52EE52EF500F0B0F01256F0F01255187
:10067000080803E20F01080E256F0F012551E66EF1
:10068000E66A0101AD510B0DF3CFE9FFF4CFEAFFAC
:10069000410EE926010EEA22030EE926000EEA22A7
:1006A000E9CF20F0EACF21F020C0E6FF21C0E6FF2D
:1006B000260EE66E0F0EE66E4EEC23F0226E060E50
:1006C000E15E22500101AD510B0DF3CFE9FFF4CFF4
:1006D000EAFF410EE926010EEA220F01EF50080B56
:1006E00002E0258D01D0259D0F01080E206F01012C
:1006F000AD510B0DF3CFE9FFF4CFEAFF410EE92630
:10070000010EEA22EE52EE52EF9803D00101AD2B1A
:100710003FD7E55200EE1CF00D0EE80403E3E5CFF1
:10072000EDFFFBD700EE0FF0100EE80403E3E5CF7A
:10073000EDFFFBD7E5CFFAFFE5CFF4FFE5CFF3FF01
:10074000E5CFF5FFE5CFF7FFE5CFF6FFE5CFEAFF11
:10075000E5CFE9FFE5CFDAFFE550E5CFE0FFE5CFF4
:10076000D8FF1000D9CFE6FFE1CFD9FFFD0EDBCFD8
:10077000F6FFFE0EDBCFF7FF040EF626000EF72283
:100780000800F5CF10F0FA0EDB50D880105408E2C4
:10079000050E046E056A040E066E050E076ECBD0BC
:1007A000FD0EDBCFF6FFFE0EDBCFF7FF030EF626C6
:1007B000000EF7220800F550070B010808E1010EB2
:1007C000046E056A010E066E060E076EB4D0FD0EAD
:1007D000DBCFF6FFFE0EDBCFF7FF050EF626000E91
:1007E000F7220900F5CF10F00800F5CF11F0000E48
:1007F000105C100E115842E3FD0EDBCFF6FFFE0E2B
:10080000DBCFF7FF030EF626000EF7220800F550A7
:10081000100B34E0F29EFD0EDBCFF6FFFE0EDBCFB9
:10082000F7FF040EF626000EF7220800F550E66EDC
:10083000E66AFD0EDBCFF6FFFE0EDBCFF7FF050EFF
:10084000F626000EF7220900F5CF10F00800F5CFCC
:1008500011F0126A10C0E6FF11C0E6FF12C0E6FFF9
:10086000FB0EDBCFE6FFFC0EDBCFE6FF79EC23F0DF
:10087000136E070EE15E1350F28E58D0FD0EDBCFE3
:10088000F6FFFE0EDBCFF7FF050EF626000EF72271
:100890000900F5CF10F00800F5CF11F0000E105C44
:1008A000100E11583BE2FD0EDBCFF6FFFE0EDBCF44
:1008B000F7FF030EF626000EF7220800F550100B86
:1008C0002DE1F29EFD0EDBCFF6FFFE0EDBCFF7FF34
:1008D000040EF626000EF7220800F550E66EE66AD2
:1008E000FD0EDBCFF6FFFE0EDBCFF7FF050EF62683
:1008F000000EF7220900F5CFE6FF0800F5CFE6FF6E
:10090000FB0EDBCFE6FFFC0EDBCFE6FF4EEC23F069
:10091000106E060EE15E1050F28E08D0470E046E87
:10092000056A040E066E060E076E05D0046A056A97
:10093000066A076A00D0E552E7CFD9FF1200D9CF87
:10094000E6FFE1CFD9FF040EE126FD0EDBCFF6FF77
:10095000FE0EDBCFF7FF030EF626000EF72208008F
:10096000F550070B02080FE0FD0EDBCFF6FFFE0E81
:10097000DBCFF7FF030EF626000EF7220800F55036
:10098000070B030808E1020E046E056A010E066EED
:10099000060E076EEAD0FD0EDBCFF6FFFE0EDBCFB4
:1009A000F7FF040EF626000EF7220800F550F36E4E
:1009B000FA0EDB50F35C08E0100E046E056A070EB9
:1009C000066E060E076ED1D0FB0EDBCFE6FFFC0EE7
:1009D000DBCFE6FFFD0EDBCFE6FFFE0EDBCFE6FF53
:1009E0006AEC1CF0E552E552E552E55204C0DEFF28
:1009F00005C0DEFF06C0DEFF07C0DDFFDD52DD52B1
:100A0000D9CFE9FFDACFEAFFEECF10F0EECF11F049
:100A1000EECF12F0EFCF13F0105011101210131090
:100A20000BE0DECF04F0DECF05F0DECF06F0DDCF49
:100A300007F0DD52DD5299D0FD0EDBCFF6FFFE0E42
:100A4000DBCFF7FF050EF626000EF7220900F5CFE3
:100A500010F00800F5CF11F0000E105C100E1158C8
:100A600031E2FD0EDBCFF6FFFE0EDBCFF7FF030E0C
:100A7000F626000EF7220800F550100B23E1F29E37
:100A8000FA0EDBCFE6FFE66AFB0EDBCFE6FFFC0EDD
:100A9000DBCFE6FFFD0EDBCFF6FFFE0EDBCFF7FF71
:100AA000050EF626000EF7220900F5CFE6FF080036
:100AB000F5CFE6FF4EEC23F0106E060EE15E10500F
:100AC000F28E4ED0FD0EDBCFF6FFFE0EDBCFF7FF32
:100AD000050EF626000EF7220900F5CF10F00800EB
:100AE000F5CF11F0000E105C100E115831E3FD0E21
:100AF000DBCFF6FFFE0EDBCFF7FF030EF626000E70
:100B0000F7220800F550100B23E0F29EFA0EDBCF1F
:100B1000E6FFE66AFB0EDBCFE6FFFC0EDBCFE6FF6F
:100B2000FD0EDBCFF6FFFE0EDBCFF7FF050EF62640
:100B3000000EF7220900F5CFE6FF0800F5CFE6FF2B
:100B400000EC22F0106E060EE15E1050F28E08D01E
:100B5000470E046E056A040E066E060E076E05D07B
:100B6000046A056A066A076A00D0040EE15C02E2C4
:0E0B7000E16AE552E16EE552E7CFD9FF1200CF
:020B7E0002046F
:100B8000050607080C0010001204001001100002F6
:100B9000019C0102100002049D010310000001A14C
:100BA000010310010204D9000310020204DD000356
:100BB00010030204E1000310040204E50003100521
:100BC0000204E9000310060204ED0003100702040A
:100BD000F1000310080204F50005100010040410D1
:100BE0000610001004081007100010040C10081064
:100BF0000012161010091000120526100A1000121B
:100C0000052B10141000320430101510001002349F
:100C100010161000120136101610011004371016AD
:100C2000100210043B1016100310043F101610049D
:100C30001004431017100010024710181000120182
:100C4000491018100112044A1018100212044E1014
:100C50001810031204521018100412045610291010
:100C60000012015A1029100110015B10001200122D
:100C7000015C1000120132045D10001202320461A6
:100C800010001400120166100014013204671000F5
:100C9000140212016B1001140012016610011401FC
:100CA00032046C10011402120170100214001201BF
:100CB0006610021401100471100214021201751062
:100CC00003140012016610031401100476100314BB
:100CD0000212017A1000160012017B100016011298
:100CE000047C100016021204801000160312048403
:100CF000100016041204881000160512048C10004F
:100D0000160612049010001607120494100016081C
:100D10001204981001160012017B10011601120432
:100D20009C100116021204A0100116031204A41054
:100D30000116041204A8100116051204AC100116C5
:100D4000061204B0100116071204B410011608129E
:100D500004B81002160012017B100216011204BC26
:100D6000100216021204C0100216031204C410026C
:100D700016041204C8100216051204CC100216063E
:100D80001204D0100216071204D41002160812041E
:100D9000D81003160012017B100316011204DC1098
:100DA0000316021204E0100316031204E4100316E3
:100DB000041204E8100316051204EC1003160612C0
:100DC00004F0100316071204F4100316081204F8B6
:100DD000100018001201FC100018013204FD100070
:100DE0001802100101110018031002021100180569
:100DF00010020411001A0012010611001A01120457
:100E00000711001A0212040B11001A0312040F1129
:100E1000001A0412041311001A0512041711001A03
:100E20000612041B11001A0712041F11001A0812DF
:100E3000042311801F001004271100210002040E5A
:100E4000010121000001FD0002210010012B11030E
:100E50002100000202010421000202040106210017
:100E60000204F90000600012017F0B006001000223
:100E700094010060020002960100600300029801E4
:100E800000600400029A010160001201840B0160FD
:100E900001000151000160020001520001600300E5
:100EA0000153000160040001540001600500015578
:100EB00000016006000156000160070001570001B3
:100EC0006008000158000160090001590001600A32
:100ED00000015A0001600B00015B0001600C000181
:040EE0005C007B0037
:0C0EE400D8CFE4FFE0CFE4FFE46EDACFEB
:100EF000E4FFE2CFDAFFE9CFE4FFEACFE4FFF6CF89
:100F0000E4FFF7CFE4FFF5CFE4FFF3CFE4FFF4CF46
:100F1000E4FFFACFE4FF00EE00F0100EE80403E374
:100F2000EECFE4FFFBD700EE10F00D0EE80403E374
:100F3000EECFE4FFFBD7E6529EA210D09E92BCEC0F
:100F400010F09EA20AD0000EE66EE66A040EE66E6F
:100F5000B3EC12F0E552E552E5520AD0000EE66E0F
:100F6000E66A020EE66EB3EC12F0E552E552E55287
:100F7000E55200EE1CF00D0EE80403E3E5CFEDFFB3
:100F8000FBD700EE0FF0100EE80403E3E5CFEDFF12
:100F9000FBD7E5CFFAFFE5CFF4FFE5CFF3FFE5CFD1
:100FA000F5FFE5CFF7FFE5CFF6FFE5CFEAFFE5CFA9
:100FB000E9FFE5CFDAFFE550E5CFE0FFE5CFD8FF69
:100FC000100025EC00F07FEC1FF097EC08F07D0E90
:100FD000CA6E7C0ECB6ECC6A9E929F929D82D08E02
:100FE000F28CF28E0400AAEC14F00400F8EC1FF06E
:040FF000F9D712001B
:030FF400000000FA
:080FF700000000000000F900F9
:101000000000000080000000000000000000000060
:1010100043414E6F70656E204C656420506F737451
:10102000204E6F646500312E303000312E3030009C
:1010300080000000320004000000000000000000FA
:1010400000000000000000E80304000000000000B1
:101050000000000000000000000001000200060087
:101060000080050000000200020000FF00030000F5
:10107000FF00020040FF00030040FF081001006075
:101080001002006010030060100400600000000007
:1010900000000000000000000000000008010160E6
:1010A0000802016008030160000000000000000069
:1010B00000000000000000000000000010010060BF
:1010C00010020060100300601004006000000000C7
:1010D00000000000000000000000000008010160A6
:1010E0000802016008030160000000000000000029
:1010F000000000000000000000000000058001006A
:1011000000FE000000000840000000000000000099
:1011100000000000000000000000000000000000CF
:0E1120000000000000000000000000030500B9
:02112E00D9CF17
:10113000E6FFE1CFD9FF060EE1260101016B46EC87
:1011400001F0DE6ADD6ADECF10F0DDCF11F0790E3E
:10115000105C000E11580EE2DECFE9FFDDCFEAFF92
:10116000600EE926000EEA22EF6ADF2A010E01E393
:10117000DB2AE9D7DE6ADD6ADECF10F0DDCF11F0C1
:10118000370E105C000E11580EE2DECFE9FFDDCF06
:10119000EAFF410EE926010EEA22EF6ADF2A010E7C
:1011A00001E3DB2AE9D7080EF66E100EF76E090090
:1011B000F5CF04F00900F5CF05F00900F5CF06F0F2
:1011C0000800F5CF07F0E80E096E030E0A6E0B6AF1
:1011D0000C6AD4EC23F004C06EF005C06FF0080E6A
:1011E000F66E100EF76E0900F5CF04F00900F5CF8A
:1011F00005F00900F5CF06F00800F5CF07F0030E63
:10120000096E0A6A0B6A0C6A04C004F005C005F096
:1012100006C006F007C007F09CEC23F000C004F005
:1012200001C005F002C006F003C007F0D00E096E41
:10123000070E0A6E0B6A0C6AD4EC23F004C070F03F
:1012400005C071F0080EF66E100EF76E0900F5CFAE
:1012500004F00900F5CF05F00900F5CF06F008000D
:10126000F5CF07F0D00E096E070E0A6E0B6A0C6AF6
:10127000D4EC23F004C072F005C073F0040EF66ED7
:10128000100EF76E0900000EF514106E0900000E26
:10129000F514116E0900000EF514126E0800400ED0
:1012A000F514136E105011101210131002E0010EFD
:1012B00001D0000E0001E8B07481E8A074910C0E1A
:1012C000F66E100EF76E0900F5CF04F00900F5CFA9
:1012D00005F00900F5CF06F00800F5CF07F0E80E9D
:1012E000096E030E0A6E0B6A0C6AD4EC23F004C07C
:1012F00006F105C007F10101026B036B0101046BEC
:10130000056B01010893010108810101316B040E95
:101310000101315D0BE201013151EA6A0E0FE96E04
:10132000010EEA22EF6A0101312BF1D701019C6B1A
:101330000101A16B0101316B080E0101315D12E267
:1013400001013151040DF3CFE9FFF4CFEAFFD90ECB
:10135000E926000EEA22EE6AEE6AEE6AEE6A010102
:10136000312BEAD70101006B0101316B010E010144
:10137000315D13E201013151190DF3CFE9FFF4CFD3
:10138000EAFF120EE926010EEA22020EE926000EFD
:10139000EA22EF6A0101312BE9D70101316B010E1D
:1013A0000101315D50E201013151090DF3CFF6FF2A
:1013B000F4CFF7FFFD0EF626100EF722040EF626E8
:1013C000000EF7220800F550E66E01013151EA6A7D
:1013D0002B0FE96E010EEA22E552E750EF6E010194
:1013E0003151E96EEA6AD890E936EA362C0EE926E0
:1013F000010EEA22EE6AED6A01013151090DF3CFC7
:10140000F6FFF4CFF7FFFD0EF626100EF722070EBB
:10141000F626000EF7220900F5CF10F00800F5CFF0
:1014200011F001013151E96EEA6AD890E936EA36E5
:101430002E0EE926010EEA2210C0EEFF11C0EDFFCC
:101440000101312BACD7F7EC1FF00001606B616B31
:1014500000016291628362956297040EF66E100E2F
:10146000F76E0900F5CF10F00800F5CF11F0050E6A
:10147000D89010361136E804FBE1000E0001101080
:101480006B6F11C06CF000016D916D936D956D9750
:1014900000016D8B0101020E316F060E0101315DFD
:1014A00001E3FDD0070EF36E020EF3CFDBFF030E58
:1014B000DB6A080EF36E030EDBCFF4FFF350F45C2F
:1014C00021E2020E0101315D200DF3CF10F0F4CFC7
:1014D00011F07C0E1026100E1122030EDB50040DAD
:1014E0001050F324F66E1150F420F76E020EDBCF8D
:1014F000E7FF0800F550E726020EE7CFDBFF030EFB
:10150000DB2AD7D7020EDB3ADB46DB9EDB9CDB9A7D
:10151000020EDB50080811E2080EF36E020EF3CF44
:10152000DBFF020E0101315DE66EE66A030EE66E38
:10153000B3EC12F0E552E552E552020E0101315DC5
:10154000050DF3CFF6FFF4CFF7FF670EF626100E6A
:10155000F7220900000EF514106E0900000EF514B4
:10156000116E0900000EF514126E0800800EF514BD
:10157000136E105011101210131001E08DD0020ED6
:10158000DB5001E189D0020E0101315D050DF3CF81
:10159000F6FFF4CFF7FF670EF626100EF7220900CC
:1015A000F5CF10F00800F5CF11F0050ED8901036E9
:1015B0001136E804FBE11050000E11120101315107
:1015C0000B0DF3CFE9FFF4CFEAFF600EE926000E22
:1015D000EA2210C0EEFF11C0EDFF020EDB50106ECC
:1015E000010131510B0DF3CFE9FFF4CFEAFF600E9B
:1015F000E926000EEA22EE52EE5210500F0BF36E67
:10160000F00EEF14F310EF6E020E0101315D030ACC
:1016100042E0010A3FE0030A20E0010A01E03CD079
:101620000101A951106E116A050ED89010361136BD
:10163000E804FBE11050000E1112010131510B0DB5
:10164000F3CFE9FFF4CFEAFF600EE926000EEA22AD
:101650001050EE261150ED221FD00101A951106E3D
:10166000116A050ED89010361136E804FBE11050CF
:10167000000E1112010131510B0DF3CFE9FFF4CF30
:10168000EAFF600EE926000EEA221050EE26115005
:10169000ED2202D001D000D00101312BFED6010194
:1016A000060E316F070E0101315D01E3B3D0060E66
:1016B0000101315D090DF3CFF6FFF4CFF7FF5D0EA9
:1016C000F626100EF7220900000EF514106E090020
:1016D000000EF514116E0900000EF514126E0800CC
:1016E000800EF514136E105011101210131001E03B
:1016F0008ED0060E0101315D090DF3CFF6FFF4CF58
:10170000F7FF5D0EF626100EF722040EF626000EE9
:10171000F7220900000EF514146E0900000EF514EE
:10172000156E0900000EF514166E0800800EF514F3
:10173000176E145015101610171069E1060E0101EE
:10174000315D090DF3CFF6FFF4CFF7FF5D0EF626FE
:10175000100EF7220900F5CF10F00800F5CF11F0B8
:10176000050ED89010361136E804FBE11050000E3B
:101770001112010131510B0DF3CFE9FFF4CFEAFF54
:10178000600EE926000EEA2210C0EEFF11C0EDFF48
:10179000010131510B0DF3CFE9FFF4CFEAFF600EE9
:1017A000E926000EEA22EE52EE52F00EEF1408097E
:1017B000EF6E010131510B0DF3CFE9FFF4CFEAFFDA
:1017C000600EE926000EEA22EE52EE52EF8A060E75
:1017D0000101315D1CE10101A951106E116A050E74
:1017E000D89010361136E804FBE11050000E1112AB
:1017F000010131510B0DF3CFE9FFF4CFEAFF600E89
:10180000E926000EEA221050EE261150ED220101C9
:10181000312B48D70101070E316F0B0E0101315DED
:1018200001E391D0070E0101315D040DF3CFF6FF06
:10183000F4CFF7FF370EF626100EF7220900000E40
:10184000F514106E0900000EF514116E0900FF0E5C
:10185000F514126E0800000EF514136E10501110DE
:101860001210131041E0070E0101315D040DF3CF9A
:10187000F6FFF4CFF7FF370EF626100EF722090019
:10188000F5CF16F00900F5CF17F00900F5CF18F0E5
:101890000800F5CF19F018C012F019C013F00001BC
:1018A000146A156A136A146A156A070E131212C0B5
:1018B00010F013C011F0050ED89010361136E80460
:1018C000FBE11050000E1112010131510B0DF3CF4D
:1018D000E9FFF4CFEAFF600EE926000EEA2210C00D
:1018E000EEFF11C0EDFF0DD0010131510B0DF3CF13
:1018F000E9FFF4CFEAFF600EE926000EEA22EE6A65
:10190000ED6A010131510B0DF3CFE9FFF4CFEAFF8E
:10191000600EE926000EEA22EE52EE52F00EEF14AF
:101920000109EF6E010131510B0DF3CFE9FFF4CF47
:10193000EAFF600EE926000EEA22EE52EE52EF8A2E
:101940000101312B6AD7040EF66E100EF76E0900F6
:10195000F5CF10F00800F5CF11F0050ED890103635
:101960001136E804FBE1000E01011010416F11C0B7
:1019700042F1010143914393439543970101A951DA
:10198000126E136A300EF66E100EF76E0900F550E7
:101990001224106E0900F5501320116E050ED89018
:1019A00010361136E804FBE1000E010110104C6FF7
:1019B00011C04DF101014E914E934E954E8701019C
:1019C000020E316F030E0101315D01E35ED1070E9E
:1019D000F36E040EF3CFDBFF050EDB6A080EF36E29
:1019E000050EDBCFF4FFF350F45C21E2020E01019F
:1019F000315D200DF3CF10F0F4CF11F0070E10265B
:101A0000110E1122050EDB50040D1050F324F66E5A
:101A10001150F420F76E040EDBCFE7FF0800F550FD
:101A2000E726040EE7CFDBFF050EDB2AD7D7040E2F
:101A3000DB3ADB46DB9EDB9CDB9A040EDB500808BE
:101A400011E2080EF36E040EF3CFDBFF020E01016C
:101A5000315DE66EE66A030EE66EB3EC12F0E55217
:101A6000E552E552020E0101315D090DF3CFF6FF9B
:101A7000F4CFF7FFFD0EF626100EF7220900000E38
:101A8000F514106E0900000EF514116E0900000E19
:101A9000F514126E0800800EF514136E105011101C
:101AA0001210131001E0EED0040EDB5001E1EAD079
:101AB000020E0101315D090DF3CFF6FFF4CFF7FF00
:101AC000FD0EF626100EF7220900F5CF10F00800E3
:101AD000F5CF11F0050ED89010361136E804FBE171
:101AE0001050000E1112010131510B0DF3CFE9FF1F
:101AF000F4CFEAFF410EE926010EEA2210C0EEFF04
:101B000011C0EDFF040EDB50106E010131510B0DC1
:101B1000F3CFE9FFF4CFEAFF410EE926010EEA22F6
:101B2000EE52EE5210500F0BF36EF00EEF14F31056
:101B3000EF6E020E0101315D090DF3CFF6FFF4CF18
:101B4000F7FFFD0EF626100EF722040EF626000E05
:101B5000F7220800F504106E116A113404E21050E7
:101B6000EF08000E11540EE3010131510B0DF3CFBC
:101B7000E9FFF4CFEAFF410EE926010EEA22EE5218
:101B8000EE52EF8A020E0101315D030A5EE0010AA6
:101B90003FE0030A20E0010A01E074D00101A951ED
:101BA000106E116A050ED89010361136E804FBE16C
:101BB0001050000E1112010131510B0DF3CFE9FF4E
:101BC000F4CFEAFF410EE926010EEA221050EE267C
:101BD0001150ED2257D00101A951106E116A050E66
:101BE000D89010361136E804FBE11050000E1112A7
:101BF000010131510B0DF3CFE9FFF4CFEAFF410EA4
:101C0000E926010EEA221050EE261150ED223AD0BC
:101C10000101A951106E116A050ED89010361136C7
:101C2000E804FBE11050000E1112010131510B0DBF
:101C3000F3CFE9FFF4CFEAFF410EE926010EEA22D5
:101C40001050EE261150ED221DD00101A951106E49
:101C5000116A050ED89010361136E804FBE11050D9
:101C6000000E1112010131510B0DF3CFE9FFF4CF3A
:101C7000EAFF410EE926010EEA221050EE2611502D
:101C8000ED2200D00101312B9DD60101030E316FF1
:101C9000040E0101315D01E3A9D0030E0101315DA4
:101CA000090DF3CFF6FFF4CFF7FF5D0EF626100E09
:101CB000F7220900000EF514106E0900000EF5144D
:101CC000116E0900000EF514126E0800800EF51456
:101CD000136E105011101210131001E084D0030E77
:101CE0000101315D090DF3CFF6FFF4CFF7FF5D0E73
:101CF000F626100EF722040EF626000EF722090033
:101D0000000EF514146E0900000EF514156E09008E
:101D1000000EF514166E0800800EF514176E1450A0
:101D20001510161017105FE1030E0101315D090D4A
:101D3000F3CFF6FFF4CFF7FF5D0EF626100EF72275
:101D4000040EF626000EF7220900F5CF10F0080069
:101D5000F5CF11F0050ED89010361136E804FBE1EE
:101D60001050000E1112010131510B0DF3CFE9FF9C
:101D7000F4CFEAFF410EE926010EEA2210C0EEFF81
:101D800011C0EDFF010131510B0DF3CFE9FFF4CF8D
:101D9000EAFF410EE926010EEA22EE52EE52F00E63
:101DA000EF140809EF6E030E0101315D1CE1010122
:101DB000A951106E116A050ED89010361136E8043C
:101DC000FBE11050000E1112010131510B0DF3CF48
:101DD000E9FFF4CFEAFF410EE926010EEA22105096
:101DE000EE261150ED220101312B52D70101A951EC
:101DF000116A000F106E070E1122050ED8901036D2
:101E00001136E804FBE1000E010110106D6F11C0E6
:101E10006EF101016F816F936F956F9774EC01F014
:101E2000060EE15C02E2E16AE552E16EE552E7CFBF
:101E3000D9FF1200D9CFE6FFE1CFD9FF01017B51D5
:101E400001E001D0F29CFD0EDBCFE9FFFE0EDBCFFF
:101E5000EAFF0B0EEA02F3CFEAFF0B0EE902F3CF23
:101E6000E9FFF450EA26410EE926010EEA22EE527D
:101E7000EE52EF50100B13E0FD0EDBCFE6FFFE0E2F
:101E8000DBCFE6FF0C0EE66E6EDBE552E552E55267
:101E900001017B5101E001D0F28C010EFBD00F015A
:101EA0000F012051080B01E0D5D00101005101E0E4
:101EB000D1D0FD0EDBCFE9FFFE0EDBCFEAFF0B0E2C
:101EC000EA02F3CFEAFF0B0EE902F3CFE9FFF45089
:101ED000EA26410EE926010EEA22EE52EE52EF50BA
:101EE000200B1AE001010651071116E0010104510F
:101EF0000101065D01010551010107590DE2FD0EC9
:101F0000DBCFE6FFFE0EDBCFE6FF0D0EE66E2BDB32
:101F1000E552E552E5529DD0FD0EDBCFE9FFFE0E06
:101F2000DBCFEAFF0B0EEA02F3CFEAFF0B0EE9026A
:101F3000F3CFE9FFF450EA26410EE926010EEA222A
:101F4000EFCF22FFFD0EDBCFE9FFFE0EDBCFEAFF76
:101F50000B0EEA02F3CFEAFF0B0EE902F3CFE9FF23
:101F6000F450EA26410EE926010EEA22010EE92686
:101F7000000EEA22EFCF21FFFD0EDBCFE9FFFE0EC0
:101F8000DBCFEAFF0B0EEA02F3CFEAFF0B0EE9020A
:101F9000F3CFE9FFF450EA26410EE926010EEA22CA
:101FA000EE52EE52EF500F0B0F01256F0F0125512E
:101FB000080803E20F01080E256F0F012551E66E98
:101FC000E66AFD0EDBCFE9FFFE0EDBCFEAFF0B0E6C
:101FD000EA02F3CFEAFF0B0EE902F3CFE9FFF45078
:101FE000EA26410EE926010EEA22030EE926000E3A
:101FF000EA22E9CF10F0EACF11F010C0E6FF11C0DD
:10200000E6FF260EE66E0F0EE66E4EEC23F0126E25
:10201000060EE15E1250FD0EDBCFE9FFFE0EDBCFB8
:10202000EAFF0B0EEA02F3CFEAFF0B0EE902F3CF51
:10203000E9FFF450EA26410EE926010EEA220F01DB
:10204000EF50080B02E0258D01D0259D0F01080EF1
:10205000206F19D0FD0EDBCFE9FFFE0EDBCFEAFFCC
:102060000B0EEA02F3CFEAFF0B0EE902F3CFE9FF12
:10207000F450EA26410EE926010EEA22EE52EE5213
:10208000EF880101002B01017B5101E001D0F28CAE
:10209000000E00D0E552E7CFD9FF1200D9CFE6FFFE
:1020A000E1CFD9FFFD0EDBCFE9FFFE0EDBCFEAFF6C
:1020B000010ED890E936EA36E806FBE12C0EE92657
:1020C000010EEA22EE50ED1002E0020E51D0FD0E9C
:1020D000DBCFF6FFFE0EDBCFF7FF090EF702F3CFE3
:1020E000F7FF090EF602F3CFF6FFF450F726FD0EC8
:1020F000F626100EF722050EF626000EF72209002E
:10210000F5CF10F00800F5CF11F00A0E0B6E0C6A37
:1021100010C006F011C007F038EC24F006C010F033
:1021200007C011F0FD0EDBCFE9FFFE0EDBCFEAFFAB
:10213000010ED890E936EA36E806FBE12C0EE926D6
:10214000010EEA2210C0EEFF11C0EDFFFD0EDBCF45
:1021500010F0FE0EDBCF11F0020E1026000E112241
:1021600010C0E6FF11C0E6FF65DEE552E55200D083
:10217000E552E7CFD9FF12000101010E7B6F01018B
:10218000782B000E792301017E2B640E01017E5D08
:1021900004E101017A2B01017E6B00016E516F1188
:1021A0004FE07F0E0101015D04E0050E0101015DBC
:1021B00047E10101042B000E052300016DA920D089
:1021C000000172510101045D0001735101010559C3
:1021D0000EE2050E0101015D0AE104C1E6FF05C141
:1021E000E6FF1D0EE66EBFD9E552E552E55201014C
:1021F000022B000E03230101046B056B00016D9996
:10220000000174A11DD00101842B000E8523000163
:102210006E510101845D00016F510101855910E388
:10222000000EE66EE66A06DEE552E5520101022B7B
:10223000000E03230101046B056B0101846B856BA8
:10224000050E0101015D18E00101326B040E010170
:10225000325D12E2020E010132250B0DF3CFE9FFD0
:10226000F4CFEAFF600EE926000EEA22EE52EE52AB
:10227000EF980101322BEAD7FAEC1FF000016E5102
:102280006F1166E0050E0101015D62E1010104517B
:1022900005114BE10101326B010E0101325D45E296
:1022A000020E010132250B0DF3CFE9FFF4CFEAFF57
:1022B000410EE926010EEA22EE52EE52EF50200BBB
:1022C00031E001013251EA6A2B0FE96E010EEA2278
:1022D000EF0628E101013251090DF3CFF6FFF4CFEB
:1022E000F7FFFD0EF626100EF722040EF626000E5E
:1022F000F7220800F550E66E01013251EA6A2B0F11
:10230000E96E010EEA22E552E750EF6E32C1E6FFB8
:102310009DEC20F0E55201013251E66EE66ABEDE28
:10232000E552E5520101322BB7D7010104510001FA
:10233000705D01010551000171590AE204C1E6FF17
:1023400005C1E6FF0F0EE66E0ED9E552E552E552E5
:102350000101326B010E0101325D01E380D0010108
:102360003251E96EEA6AD890E936EA362C0EE9264F
:10237000010EEA22EE50ED100EE001013251E96E3D
:10238000EA6AD890E936EA362C0EE926010EEA22EE
:10239000EE06000EEF5A01013251090DF3CFF6FFA0
:1023A000F4CFF7FFFD0EF626100EF722070EF626E5
:1023B000000EF7220900F5CF10F00800F5CF11F05C
:1023C0001050111049E001013251E96EEA6AD890CB
:1023D000E936EA362E0EE926010EEA22EE06000E56
:1023E000ED5AEECF12F0EDCF13F01250131034E18E
:1023F00001013251090DF3CFF6FFF4CFF7FFFD0EC7
:10240000F626100EF722070EF626000EF722090018
:10241000F5CF10F00800F5CF11F001013251E96E4F
:10242000EA6AD890E936EA362E0EE926010EEA224B
:1024300010C0EEFF11C0EDFF050E0101015D0CE1C2
:1024400032C1E6FF9DEC20F0E55201013251E66E0B
:10245000E66A24DEE552E5520101322B7BD7010109
:102460007F2B320E01017F5D03E101017C8508D0E5
:10247000640E01017F5D04E101017C9501017F6B28
:102480000101802B000E81230101C80E801901E19A
:10249000815103E101017C870CD0900E010180196C
:1024A00002E1010E811905E101017C970101806BB8
:1024B000816B0101822B000E8323D00E0101821952
:1024C00002E1070E831948E0B00E0101821902E112
:1024D000040E83193EE0E80E0101821902E1030EA9
:1024E000831934E0200E0101821902E1030E8319E1
:1024F00028E0580E0101821902E1020E83191CE046
:10250000900E0101821902E1010E83190EE0C80E3E
:102510000101821901E1835101E022D001017C898E
:1025200001017C8B01017C8D1BD001017C99010193
:102530007C9B01017C9D14D001017C8B01017C8D71
:102540000FD001017C9B01017C9D0AD001017C8D93
:1025500007D001017C9D04D00101826B836B00D008
:1025600001017B6B1200D9CFE6FFE1CFD9FF020E4C
:10257000E126FE0EDB40E840E8401F0BDF6EFE0E5A
:10258000DB50070B106E010E105204E0E846FE0B04
:102590001006FCE1E76E010EE7CFDBFFDF5003081A
:1025A00004E2DF6ADE52020EDD6E010EDBCFE6FFD3
:1025B000DF50EA6A0E0FE96E010EEA22EF50E55293
:1025C000E7142CE1FE0EDB5009E0DF50EA6A0E0F43
:1025D000E96E010EEA22010EDB50EF1201010881C3
:1025E000010108B31BD001010883FE0EF76ADB343A
:1025F000FE0BF736F66E300EF626480EF72209006F
:10260000F5CF09F10A00F5CF0AF1FE0EDBCF0BF191
:10261000FC0EDBCF0CF1FD0EDBCF0DF1020EE15C09
:1026200002E2E16AE552E16EE552E7CFD9FF12001E
:10263000D9CFE6FFE1CFD9FF020EE126FE0EDB4047
:10264000E840E8401F0BDF6EFE0EDB50070B106EFC
:10265000010E105204E0E846FE0B1006FCE1E76EA6
:10266000010EE7CFDBFFDF5003080BE2FE0EDBCFEE
:10267000E6FFE66A010EE66E76DFE552E552E552C8
:102680002BD0010EDBCFE6FFDF50EA6A0E0FE96EBA
:10269000010EEA22EF50E552E7141EE0010EDB1CAA
:1026A000106EDF50EA6A0E0FE96E010EEA2210503A
:1026B000EF1601010881010108B30ED00101088362
:1026C0000101096B0A6BFE0EDBCF0BF1FC0EDBCFB9
:1026D0000CF1FD0EDBCF0DF1020EE15C02E2E16ACE
:1026E000E552E16EE552E7CFD9FF1200D9CFE6FF00
:1026F000E1CFD9FFFD0EDBCF33F1FE0EDBCF34F19E
:10270000FC0EDBCF35F10101386B396BE20EF66E52
:102710000E0EF76E0900F5CF3AF10800F5CF3BF148
:102720000101010E3A5F000E3B5B01013A510101CC
:10273000385D01013B510101395901E39FD001018D
:102740000101385101013A250101366F01010101F2
:10275000395101013B210101376F010E0F0B0101BE
:1027600005E0D89037333633E806FBE136C1F6FF93
:1027700037C1F7FF070EF702F3CFF7FF070EF60298
:10278000F3CFF6FFF450F726850EF6260B0EF72250
:102790000900F5CF3CF10A00F5CF3DF136C1F6FF57
:1027A00037C1F7FF070EF702F3CFF7FF070EF60268
:1027B000F3CFF6FFF450F726850EF6260B0EF72220
:1027C000020EF626000EF7220800F5CF3EF10101B9
:1027D0003C510101331904E101013D51010134195A
:1027E0001DE101013E510101355D18E136C110F0D6
:1027F00037C111F0070E1102F3CF11F0070E1002CE
:10280000F3CF10F0F4501126850E10260B0E112276
:1028100010C0F3FF11C0F4FF99D02FD001013C513B
:102820000101335D01013D51010134590FE3010103
:102830003C510101331904E101013D5101013419F9
:1028400012E101013E510101355D0DE236C13AF15F
:1028500037C13BF101013A513B1104E001013A0754
:10286000000E3B5B0AD0010E010136250101386FD5
:10287000000E010137210101396F57D701013A518B
:102880000101381904E101013B51010139195BE1F2
:1028900038C136F139C137F136C1F6FF37C1F7FF1C
:1028A000070EF702F3CFF7FF070EF602F3CFF6FF9E
:1028B000F450F726850EF6260B0EF7220900F5CF09
:1028C0003CF10A00F5CF3DF136C1F6FF37C1F7FF05
:1028D000070EF702F3CFF7FF070EF602F3CFF6FF6E
:1028E000F450F726850EF6260B0EF722020EF6267A
:1028F000000EF7220800F5CF3EF101013C51010125
:10290000331904E101013D51010134191CE10101B8
:102910003E510101355D17E136C110F037C111F0AC
:10292000070E1102F3CF11F0070E1002F3CF10F0D3
:10293000F4501126850E10260B0E112210C0F3FF45
:1029400011C0F4FF03D0F36AF46A00D0E552E7CF78
:10295000D9FF1200D9CFE6FFE1CFD9FF0A0EE12659
:10296000F29C78C1DEFF79C1DDFFF28C4EEC00F005
:10297000000162A933D00001645105E00101A951B1
:102980000001645D29E100016351820A17E0030A36
:1029900013E0010A0DE0820A07E0030A01E013D008
:1029A0000101050E016F18D00101040E016F14D052
:1029B00001017F0E016F10D0FF000ED0F29E97EC48
:1029C00008F0F28E09D0000EE66EE66A1A0EE66E88
:1029D000CADDE552E552E55200016299010108A104
:1029E000EED001010891FE0E01010E1503E0010178
:1029F0009C8102D001019C91000E01010E1503E0A3
:102A000001019C8302D001019C93000E01010E156F
:102A100003E001019C8502D001019C95000E01019B
:102A20000E1503E001019C8702D001019C97010172
:102A30000F5103E001019C8902D001019C99000E15
:102A400001010E1503E001019C8B02D001019C9B4A
:102A50000F0E0101101503E001019C8F02D001014E
:102A60009C9F7F0E0101015D05E0050E0101015DE6
:102A700001E0A5D0010108A3A2D0010101014E513E
:102A8000100B3AE101018851DE5C106E8951DD586E
:102A9000116E340EF66E100EF76E0900F5CF12F0BF
:102AA0000800F5CF13F00A0E0B6E0C6A12C006F088
:102AB00013C007F038EC24F006C012F007C013F082
:102AC0001050125C1150135817E209C14FF10AC19E
:102AD00050F19CC151F10BC152F10CC153F10DC128
:102AE00054F10EC155F10FC156F1010EE66EE66AC2
:102AF0001AEC0FF0E552E552DECF88F1DDCF89F117
:102B000001010893080E0101A15D02E20101A12B60
:102B10000101A10501013F6F01013F51000829E2B8
:102B200001013F05040DF3CFE9FFF4CFEAFFD90E11
:102B3000E926000EEA22EECF10F0EECF11F0EECF34
:102B400012F0EFCF13F001013F51040DF3CFE9FF75
:102B5000F4CFEAFFD90EE926000EEA2210C0EEFFFC
:102B600011C0EEFF12C0EEFF13C0EEFF01013F07E0
:102B7000D3D709C110F00AC111F0126A136A0CC14F
:102B800014F00DC115F0166A176A100E1F0B07E03E
:102B9000D8901436153616361736E806F9E1105077
:102BA00014100001D96F115015100001DA6F125086
:102BB00016100001DB6F135017100001DC6F0101CC
:102BC0009C5121E0050E0101015D1DE1EF0E0101A7
:102BD0009C1503E001017F0E016F01019CA913D038
:102BE0005B0EF66E100EF76E0800F550020A04E058
:102BF000030A01E005D007D00101040E016F03D0E4
:102C000001017F0E016F7F0E0101015D06E0050EDF
:102C10000101015D02E047EF1AF000010001A4513B
:102C2000100B02E128EF1AF0010101016451100BB1
:102C300002E028EF1AF0A6C066F1A7C067F1A8C0AD
:102C400068F10101696B6A6B6B6B6C6B0001A551DC
:102C5000E00BE838E840040A01E1E1D3070A01E1AA
:102C600031D3010A01E1DAD1020A01E106D1010AF8
:102C700001E0D8D3A8C0E6FFA6C0E6FFA7C0E6FFE4
:102C800035DDE552E552E552F3CF12F1F4CF13F101
:102C900001011251131114E10101800E656F010150
:102CA000696B6A6B020E6B6F060E6C6F0101146B21
:102CB000030EE66EE66A1AEC0FF0E552E552C6D353
:102CC00012C1F6FF13C1F7FF040EF626000EF7221D
:102CD0000800F550140815E20101800E656F01012E
:102CE000470E696F6A6B040E6B6F060E6C6F010105
:102CF000146B030EE66EE66A1AEC0FF0E552E5522D
:102D0000A5D312C1F6FF13C1F7FF030EF626000E7E
:102D1000F7220800F550070B02080DE012C1F6FF7C
:102D200013C1F7FF030EF626000EF7220800F55038
:102D3000070B030815E10101800E656F0101020E0A
:102D4000696F6A6B010E6B6F060E6C6F0101146B7D
:102D5000030EE66EE66A1AEC0FF0E552E55276D302
:102D60000001A5A341D00001A5A10CD0040E106E56
:102D70000001A551E840E8403F0B030B105C010146
:102D80003F6F03D00101040E3F6F3FC1E6FFA90E64
:102D9000E66E000EE66E12C1E6FF13C1E6FF9FEC81
:102DA00004F0106E050EE15E105004C069F105C01C
:102DB0006AF106C06BF107C06CF1010169516A113B
:102DC0006B116C1104E00101800E656F03D00101ED
:102DD000600E656F0101146B030EE66EE66A1AEC75
:102DE0000FF0E552E55248D00001A5A145D012C12F
:102DF000F6FF13C1F7FF040EF626000EF7220800B7
:102E0000F5CF10F0116A126A136A0001A951101867
:102E10000CE10001AA51111808E10001AB51121890
:102E200004E10001AC51131800E115E00101800E2E
:102E3000656F0101100E696F6A6B070E6B6F060EEE
:102E40006C6F0101146B030EE66EE66A1AEC0FF06C
:102E5000E552E552FBD20101296B7AC12AF1010149
:102E6000020E146F0101600E656F030EE66EE66AD6
:102E70001AEC0FF0E552E552E9D2010114B315D076
:102E80000101800E656F0101010E696F6A6B040E0E
:102E90006B6F050E6C6F0101146B030EE66EE66A34
:102EA0001AEC0FF0E552E552D1D2100E0001A51533
:102EB000106E100E01011415105C14E00101800E5B
:102EC000656F0101696B6A6B030E6B6F050E6C6FAA
:102ED0000101146B030EE66EE66A1AEC0FF0E55280
:102EE000E552B4D2070E106E0001A5417F0B070B0F
:102EF000105C01013F6F0101295101013F25106E56
:102F000012C1F6FF13C1F7FF040EF626000EF722DA
:102F10000800F550D880105415E20101800E656F4D
:102F20000101120E696F6A6B070E6B6F060E6C6FF4
:102F30000101146B030EE66EE66A1AEC0FF0E5521F
:102F4000E55284D201013F51E66EE66AA60EE66EB6
:102F5000000EE66E01012951116A150F106E010E67
:102F6000112210C0E6FF11C0E6FF4EEC23F0126EF6
:102F7000060EE15E125001013F5101012927100E9A
:102F80000101141520090101656F0001A5A12ED0D2
:102F900029C1E6FF150EE66E010EE66E12C1E6FFD0
:102FA00013C1E6FF9FEC04F0106E050EE15E1050B9
:102FB00004C069F105C06AF106C06BF107C06CF18D
:102FC000010169516A116B116C110DE00101800E54
:102FD000656F0101146B030EE66EE66A1AEC0FF0E2
:102FE000E552E55233D20101146B0AD07AC12AF1BD
:102FF000010114A903D00101149902D0010114891F
:103000000101666B0101676B0101686B030EE66EDF
:10301000E66A1AEC0FF0E552E55218D2A8C0E6FFB6
:10302000A6C0E6FFA7C0E6FF76EC13F0E552E55236
:10303000E552F3CF12F1F4CF13F101011251131144
:1030400015E10101800E656F0101696B6A6B020E6B
:103050006B6F060E6C6F0101146B030EE66EE66A71
:103060001AEC0FF0E552E552F1D121D012C1F6FF72
:1030700013C1F7FF040EF626000EF7220800F550E4
:10308000140815E20101800E656F0101470E696F9A
:103090006A6B040E6B6F060E6C6F0101146B030EEE
:1030A000E66EE66A1AEC0FF0E552E552CFD112C196
:1030B000F6FF13C1F7FF030EF626000EF7220800F5
:1030C000F550070B010815E10101800E656F010144
:1030D000010E696F6A6B010E6B6F060E6C6F01015A
:1030E000146B030EE66EE66A1AEC0FF0E552E55239
:1030F000ADD112C1F6FF13C1F7FF040EF626000E84
:10310000F7220800F550040876E3040EE66E690E17
:10311000E66E010EE66E12C1E6FF13C1E6FFB2ECE9
:1031200003F0106E050EE15E1050020E04C0DBFFCE
:10313000030E05C0DBFF040E06C0DBFF050E07C053
:10314000DBFF020EDBCF10F0030EDBCF11F0040E1D
:10315000DBCF12F0050EDBCF13F010501110121060
:10316000131019E00101800E656F020EDBCF69F1CB
:10317000030EDBCF6AF1040EDBCF6BF1050EDBCF64
:103180006CF10101146B030EE66EE66A1AEC0FF0A7
:10319000E552E5522FD012C1F6FF13C1F7FF030E1F
:1031A000F626000EF7220800F550200B08E001017A
:1031B000A95101016927000E6A236B236C23040EB9
:1031C000106E12C1F6FF13C1F7FF040EF626000EB3
:1031D000F7220800F550105C040DF350430901017B
:1031E000656F0101146B030EE66EE66A1AEC0FF0D0
:1031F000E552E55266D0140EE66E150EE66E010E2F
:10320000E66E12C1E6FF13C1E6FFB2EC03F0106EEA
:10321000050EE15E1050060E04C0DBFF070E05C070
:10322000DBFF080E06C0DBFF090E07C0DBFF060E42
:10323000DBCF10F0070EDBCF11F0080EDBCF12F062
:10324000090EDBCF13F0105011101210131019E0FB
:103250000101800E656F060EDBCF69F1070EDBCF33
:103260006AF1080EDBCF6BF1090EDBCF6CF10101C7
:10327000146B030EE66EE66A1AEC0FF0E552E552A7
:1032800020D00101296B7AC12AF10101040E146FCB
:103290000101410E656F12C1F6FF13C1F7FF040E65
:1032A000F626000EF7220800F5CF69F101016A6BDE
:1032B0006B6B6C6B030EE66EE66A1AEC0FF0E55270
:1032C000E552C4D0010114B515D00101800E656F1F
:1032D0000101010E696F6A6B040E6B6F050E6C6F56
:1032E0000101146B030EE66EE66A1AEC0FF0E5526C
:1032F000E552ACD0100E0001A515106E100E0101A4
:103300001415105C14E00101800E656F0101696BFA
:103310006A6B030E6B6F050E6C6F0101146B030E6D
:10332000E66EE66A1AEC0FF0E552E5528FD012C154
:10333000F6FF13C1F7FF040EF626000EF722080071
:10334000F5500101D88029550101406F010140511C
:10335000070803E20101070E406F01013F6B010105
:10336000405101013F5D18E20101295101013F2552
:10337000EA6A150FE96E010EEA22EF50E66E0101CE
:103380003F29EA6A650FE96E010EEA22E552E7502D
:10339000EF6E01013F2BE3D7070E01013F5D0BE20A
:1033A00001013F29EA6A650FE96E010EEA22EF6A20
:1033B00001013F2BF1D70101405101012927070EDF
:1033C0000101D8804055E824106E100E010114153B
:1033D00010100101656F12C1F6FF13C1F7FF040E53
:1033E000F626000EF7220800F5500101295D05E1DF
:1033F000010165810101146B0AD07AC12AF1010132
:1034000014A903D00101149902D001011489030EFB
:10341000E66EE66A1AEC0FF0E552E55217D00101AC
:10342000146B14D00101800E656F0101010E696FEC
:103430006A6B040E6B6F050E6C6F0101146B030E4B
:10344000E66EE66A1AEC0FF0E552E5520001A49927
:10345000010114511BE001012A5101017A5D106E36
:103460000A0E105C13E30101800E656F0101696BA8
:103470006A6B040E6B6F050E6C6F0101146B030E0B
:10348000E66EE66A1AEC0FF0E552E55204D001014F
:10349000146B0001A4990101050E306F7F0E01012C
:1034A000015D05E0050E0101015D01E047D101016B
:1034B0003F6B040E01013F5D01E33FD101013F512C
:1034C000040DF3CFF6FFF4CFF7FF370EF626100EFC
:1034D000F7220900F5CF10F00800F5CF11F01050D9
:1034E000111001E127D1070E01013F250B0DF3CF8C
:1034F000E9FFF4CFEAFF600EE926000EEA22EE5261
:10350000EE52EF50100B67E0070E01013F250B0D47
:10351000F3CFE9FFF4CFEAFF600EE926000EEA22BE
:10352000030EE926000EEA22EF50E66E070E0101B7
:103530003F250B0DF3CFE9FFF4CFEAFF600EE9263C
:10354000000EEA22030EE926000EEA22010EE92609
:10355000000EEA22E552E750EF6E070E01013F250B
:103560000B0DF3CFE9FFF4CFEAFF600EE926000E62
:10357000EA22030EE926000EEA22010EE926000ED9
:10358000EA22EF5018E0070E01013F250B0DF3CFA3
:10359000E9FFF4CFEAFF600EE926000EEA22030EEF
:1035A000E926000EEA22020EE926000EEA22DECF0C
:1035B000EEFFDDCFEDFF070E01013F250B0DF3CF31
:1035C000E9FFF4CFEAFF600EE926000EEA22EE5290
:1035D000EE52EF9896D0070E01013F250B0DF3CF69
:1035E000E9FFF4CFEAFF600EE926000EEA22030E9F
:1035F000E926000EEA22040EE926000EEA22EF5028
:1036000054E0DECF12F0DDCF13F0070E01013F25AD
:103610000B0DF3CFE9FFF4CFEAFF600EE926000EB1
:10362000EA22030EE926000EEA22020EE926000E27
:10363000EA22EE50125C106EEE501358116E01012A
:103640003F51040DF3CFF6FFF4CFF7FF370EF62608
:10365000100EF7220900F5CF14F00800F5CF15F091
:103660001050145C115015581FE2000EE66EE66A09
:103670000E0EE66EB3EC12F0E552E552E552070E7F
:1036800001013F250B0DF3CFE9FFF4CFEAFF600EF8
:10369000E926000EEA22030EE926000EEA22010EB8
:1036A000E926000EEA22EF6A2CD0070E01013F2521
:1036B0000B0DF3CFE9FFF4CFEAFF600EE926000E11
:1036C000EA22030EE926000EEA22010EE926000E88
:1036D000EA22EF5016E0070E01013F250B0DF3CF54
:1036E000E9FFF4CFEAFF600EE926000EEA22030E9E
:1036F000E926000EEA22040EE926000EEA22010E57
:10370000EF6E070E01013F250B0DF3CFE9FFF4CF5C
:10371000EAFF600EE926000EEA22030EE926000EFB
:10372000EA22010EE926000EEA22EF50050802E027
:103730000101306B01013F2BBCD644D001013F6B2E
:10374000040E01013F5D3CE2070E01013F250B0D18
:10375000F3CFE9FFF4CFEAFF600EE926000EEA227C
:10376000030EE926000EEA22010EE926000EEA22E7
:10377000EF6A070E01013F250B0DF3CFE9FFF4CFF0
:10378000EAFF600EE926000EEA22EE52EE52EF98B2
:10379000070E01013F250B0DF3CFE9FFF4CFEAFF40
:1037A000600EE926000EEA22030EE926000EEA2248
:1037B000040EE926000EEA22EF6A01013F2BC0D772
:1037C0000101306B30C17DF1470EF66E100EF76EC1
:1037D0000900F5CF10F00800F5CF11F010501110CE
:1037E00016E001018651DE5C126E8751DD58136EC2
:1037F000470EF66E100EF76E0900F5CF14F00800B4
:10380000F5CF15F01450125C1550135803E2010166
:10381000015130E1DECF86F1DDCF87F101C170F1DA
:10382000040EE66EE66A1AEC0FF0E552E55201016D
:10383000015120E1270EF66E110EF76E0900040EFD
:10384000F514106E0900000EF514116E0900000E3B
:10385000F514126E0800000EF514136E10501110BE
:103860001210131004E10101050E016F03D00101D4
:103870007F0E016F01010151050A07E07A0A04E099
:103880007B0A01E003D002D001D000D001010FB3C8
:1038900017D001010FBF14D001010FBD11D0040ECC
:1038A00001010F1508E1080E01010F1504E1100ECA
:1038B0000101111501E004D001019C5101E000D08B
:1038C0000A0EE15C02E2E16AE552E16EE552E7CF01
:0438D000D9FF12000A
:0C38D400D9CFE6FFE1CFD9FF030EE126BB
:1038E000FD0EDBCFF6FFFE0EDBCFF7FF0900F5CFB5
:1038F000DEFF0A00F5CFDDFFD9CFE9FFDACFEAFF1F
:10390000000ED880EE54120EED5411E2D9CFE9FF2B
:10391000DACFEAFFFF0ED880EE54120EED5407E323
:10392000D9CFE9FFDACFEAFF800EEE16ED52D9CFFC
:10393000E9FFDACFEAFF000ED880EE54140EED5402
:1039400010E2D9CFE9FFDACFEAFFFF0ED880EE54BC
:103950001B0EED5406E3D9CFE9FFDACFEAFFEE6A9A
:10396000ED90000EDBCF06F0010EDBCF07F0020E6C
:10397000061802E1210E071801E1A0D2010E061877
:1039800002E1210E071801E173D2800E061802E150
:103990001F0E071801E14CD2065002E1180E07185D
:1039A00001E1FFD1065002E1140E071801E1B2D186
:1039B000065002E1120E071801E16FD1160E06182B
:1039C00002E1100E071801E1B7D0060E061802E159
:1039D000100E071801E191D0050E061802E1100E35
:1039E00007181DE0030E061802E1100E071801E08B
:1039F00077D2FB0EDBCFE9FFFC0EDBCFEAFFEFCF88
:103A000010F00101A151D880105408E2310E046E6B
:103A1000056A090E066E060E076E67D261D2106A3D
:103A2000F80E116E1268BF0E136EFB0EDBCFE9FFAE
:103A3000FC0EDBCFEAFFEE501016EE501116EE50E2
:103A40001216EE501316105011101210131007E03A
:103A5000200E046E056A066A080E076E46D2040E32
:103A6000F66E100EF76E0900000EF514106E0900C8
:103A7000000EF514116E0900000EF514126E080008
:103A8000400EF514136E105011101210131034E084
:103A9000FB0EDBCFE9FFFC0EDBCFEAFFEECF14F02D
:103AA000EFCF15F0166A176A040EF66E100EF76E59
:103AB0000900FF0EF514186E0900070EF514196EB3
:103AC0000900000EF5141A6E0800000EF5141B6EA6
:103AD0001450181809E11550191806E116501A1853
:103AE00003E117501B1800E107E0220E046E056A7F
:103AF000066A080E076EF9D1F3D1FB0EDBCFE9FFA2
:103B0000FC0EDBCFEAFFEE50ED1016E0FB0EDBCF34
:103B1000E9FFFC0EDBCFEAFFEECF10F0EFCF11F0A4
:103B2000B80E105C0B0E115807E2220E046E056AE7
:103B3000066A080E076ED9D1106A116A800E126EDD
:103B40001368FB0EDBCFE9FFFC0EDBCFEAFFEE5084
:103B50001016EE501116EE501216EE5013161050AD
:103B600011101210131007E0200E046E056A066A89
:103B7000080E076EBAD1020EDB6A040EF36E020E57
:103B8000DBCFF4FFF350F45C01E386D0FB0EDBCF18
:103B9000E9FFFC0EDBCFEAFFEECF10F0EECF11F025
:103BA000EECF12F0EFCF13F0100ED8901332123286
:103BB00011321032E806F9E1020EDB50040DF3CFAA
:103BC000F6FFF4CFF7FF370EF626100EF7220900A6
:103BD000F5CF14F00900F5CF15F00900F5CF16F078
:103BE0000800F5CF17F0100ED890173216321532A4
:103BF0001432E806F9E11050141809E111501518B3
:103C000006E11250161803E11350171800E141E1C4
:103C1000FD0EDBCFF6FFFE0EDBCFF7FF020EF62622
:103C2000000EF7220800F504186E020EDB50185C37
:103C300030E0FB0EDBCFE9FFFC0EDBCFEAFFEE50FE
:103C4000ED1027E0020EDB50040DF3CFF6FFF4CFAA
:103C5000F7FF370EF626100EF7220900FF0EF514B7
:103C6000196E0900FF0EF5141A6E0900000EF51406
:103C70001B6E0800000EF5141C6E19501A101B1054
:103C80001C1007E0220E046E056A066A080E076E15
:103C90002CD1020EDB2A71D723D1FD0EDBCFF6FF2C
:103CA000FE0EDBCFF7FF020EF626000EF72208000D
:103CB000F55001080EE0FD0EDBCFF6FFFE0EDBCF68
:103CC000F7FF020EF626000EF7220800F550020854
:103CD00020E1106AF80E116E12687F0E136EFB0E53
:103CE000DBCFE9FFFC0EDBCFEAFFEE501016EE5003
:103CF0001116EE501216EE5013161050111012102D
:103D0000131007E0200E046E056A066A080E076E9F
:103D1000ECD0E6D0FD0EDBCFF6FFFE0EDBCFF7FFDB
:103D2000020EF626000EF7220800F550010838E1D1
:103D3000106AF80E116E12683F0E136EFB0EDBCF89
:103D4000E9FFFC0EDBCFEAFFEE501016EE50111625
:103D5000EE501216EE5013161050111012101310D0
:103D600018E1146A156A166A400E176EFB0EDBCF57
:103D7000E9FFFC0EDBCFEAFFEE501416EE501516ED
:103D8000EE501616EE501716145015101610171088
:103D900007E1200E046E056A066A080E076EA5D0BC
:103DA0009FD0FD0EDBCFF6FFFE0EDBCFF7FF020E3E
:103DB000F626000EF7220800F550010838E1106AD7
:103DC000F80E116E12683F0E136EFB0EDBCFE9FF8B
:103DD000FC0EDBCFEAFFEE501016EE501116EE503F
:103DE0001216EE501316105011101210131018E185
:103DF000146A156A166A400E176EFB0EDBCFE9FFD8
:103E0000FC0EDBCFEAFFEE501416EE501516EE5006
:103E10001616EE501716145015101610171007E14D
:103E2000200E046E056A066A080E076E5ED058D032
:103E3000FB0E106E116812681368FB0EDBCFE9FFF2
:103E4000FC0EDBCFEAFFEE501016EE501116EE50CE
:103E50001216EE501316105011101210131007E026
:103E6000200E046E056A066A080E076E3ED038D032
:103E7000FB0EDBCFE9FFFC0EDBCFEAFFEFCF10F04C
:103E8000010E105C09E2320E046E056A090E066E20
:103E9000060E076E2AD011D0FB0EDBCFE9FFFC0E19
:103EA000DBCFEAFFEF507F0808E2310E046E056AAF
:103EB000090E066E060E076E18D012D0FB0EDBCF71
:103EC000E9FFFC0EDBCFEAFFEF50070808E2310EF6
:103ED000046E056A090E066E060E076E06D000D047
:103EE000046A056A066A076A00D0030EE15C02E212
:0E3EF000E16AE552E16EE552E7CFD9FF12001C
:023EFE00D9CF1A
:103F0000E6FFE1CFD9FF020EE126C26A0F0EC16EB5
:103F10000001F92B000EFA23FB23FC230101A46B03
:103F2000A56B0101A66BA76B0101A86B929089801C
:103F3000929289829294898492968986929A898AA9
:103F400094908B8094928B8294948B84949A8B8A95
:103F500093908A8093928A8293988A88DE6ADD6A37
:103F6000DECF10F0DDCF11F0D890115004E6040E32
:103F7000105C000E115823E2DECF10F0DDCF11F0FF
:103F8000030E1102F3CF11F0030E1002F3CF10F065
:103F9000F4501126510E1026000E112210C0E6FF1B
:103FA00011C0E6FF000EE66EE66ACFD8E552E55294
:103FB000E552E552DF2A010E01E3DB2AD1D7E66A9A
:103FC000E66AE66A89D9E552E552E552CF6A410EC2
:103FD000CD6E9E909F809D80020EE15C02E2E16AC0
:103FE000E552E16EE552E7CFD9FF12001200120050
:103FF00016D812000101A62B000EA7230101E80E1E
:10400000A65D030EA7590AE30101A66BA76B010188
:10401000A42B000EA5230101010EA86F1200D9CF19
:10402000E6FFE1CFD9FF030EE126000178A921D0F8
:10403000F29E79C094F17AC095F17BC096F17CC074
:1040400097F17DC098F17EC099F17FC09AF180C050
:104050009BF100017899F28E510EE66E000EE66E2D
:10406000940EE66E010EE66EE9D8E552E552E55291
:10407000E552000183A918D0F29E84C0DFFF010E33
:1040800085C0DBFF020E86C0DBFF00018399F28E44
:10409000020EDBCFE6FF010EDBCFE6FFDFCFE6FF50
:1040A0001BD9E552E552E55200018EA921D0F29EBE
:1040B0008FC094F190C095F191C096F192C097F1A4
:1040C00093C098F194C099F195C09AF196C09BF174
:1040D00000018E99F28E510EE66E000EE66E940E81
:1040E000E66E010EE66EAAD8E552E552E552E552BB
:1040F000000199A918D0F29E9AC0DFFF010E9BC063
:10410000DBFF020E9CC0DBFF00019999F28E020ECC
:10411000DBCFE6FF010EDBCFE6FFDFCFE6FFDCD82B
:10412000E552E552E552030EE15C02E2E16AE55236
:10413000E16EE552E7CFD9FF1200D9CFE6FFE1CF1C
:10414000D9FFE552E7CFD9FF1200D9CFE6FFE1CF83
:10415000D9FF040EE126FD0EDBCF10F0FE0EDBCF03
:1041600011F0000E1016800E1116105002E1800E94
:10417000111802E1010E01D0000EE76E030EE7CF29
:10418000DBFFDE6ADD6ADECF10F0DDCF11F0D89004
:10419000115004E6030E105C000E115845E21F0E8C
:1041A000E76EFD0EDBCF10F0FE0EDBCF11F0E75017
:1041B0001016116A020E10C0DBFF030EDB500AE07E
:1041C000020EDB50F76A100FF66E480EF722080059
:1041D000F55009D0020EDB50F76AF00FF66E470E6D
:1041E000F7220800F550E66EFB0EDBCFE9FFDB2A75
:1041F000FC0EDBCFEAFF01E3DB2AE552E750EF6E6E
:10420000D950FD0FE96EFF0EDA20EA6E050E0F0B96
:1042100006E0EC52D890ED32EF32E806FAE1DF2A00
:10422000010E01E3DB2AAFD7040EE15C02E2E16A92
:10423000E552E16EE552E7CFD9FF1200D9CFE6FF94
:10424000E1CFD9FF020EE126DE6ADD6ADECF10F093
:10425000DDCF11F0D890115004E6040E105C000E72
:10426000115830E2FB0EDBCFE6FFFC0EDBCFE6FFA2
:10427000D950FD0FE96EFF0EDA20EA6EEECFF3FFA4
:10428000EDCFF4FF020EEE26000EEF22F3CFE9FF92
:10429000F4CFEAFFEECFE6FFEFCFE6FF56DFE552C1
:1042A000E552E552E552D950FB0FE96EFF0EDA20D8
:1042B000EA6E030EEE26000EED22DF2A010E01E368
:1042C000DB2AC4D7020EE15C02E2E16AE552E16E4C
:1042D000E552E7CFD9FF1200D9CFE6FFE1CFD9FFF2
:1042E000030EE126D950010FE96EDACFEAFF510E35
:1042F000EE6E000EED6EDF6A040EDF5C26E2010E4C
:10430000DBCFE9FFDB2A020EDBCFEAFF01E3DB2A8A
:10431000FE0EDBCFEFFF010EDBCFE9FFDB2A020E43
:10432000DBCFEAFF01E3DB2AFD0EDBCFEFFF010E5F
:10433000DBCFE9FFDB2A020EDBCFEAFF01E3DB2A5A
:10434000FC0EDBCFEFFFDF2AD7D7030EE15C02E2E2
:10435000E16AE552E16EE552E7CFD9FF1200DACF0C
:10436000E4FFE2CFDAFFE6529EA0FCEF21F0FC0E64
:10437000CF6E9E900001502AFF0E5060506A505040
:10438000516402D0899001D08980526402D0899210
:1043900001D08982536402D0899401D08984546405
:1043A00002D0899601D08986556402D0899A01D0BD
:1043B000898A566402D08B9001D08B80576402D0DA
:1043C0008B9201D08B82586402D08B9401D08B8465
:1043D000596402D08B9A01D08B8A5A6402D08A9099
:1043E00001D08A805B6402D08A9201D08A825C64A8
:1043F00002D08A9801D08A88E552E5CFDAFF110011
:10440000D9CFE6FFE1CFD9FF410EE126F250800B74
:1044100001E0010EE76E400EE7CFDBFFFD0EDB5043
:104420003F0B0001FF6F0001FF51106E116AD95060
:10443000FD0FE96EFF0EDA20EA6E1050EE5E1150AD
:10444000ED5AD950F90FE96EFF0EDA20EA6EEE5000
:10445000ED1001E1CAD0400EE66EE66AFD0EDBCF3C
:1044600010F0FE0EDBCF11F0126A10C0E6FF11C093
:10447000E6FF12C0E6FFD9CFE6FFDACFE6FF79EC20
:1044800023F0136E070EE15E1350400E0001D8803A
:10449000FF550001FE6FF90EDBCF10F0FA0EDBCFF7
:1044A00011F00001FE51126E136A1250105C13508D
:1044B000115803E2F90EDBCFFEF00001FE51E66E6B
:1044C000E66AFB0EDBCFE6FFFC0EDBCFE6FFD9CFC3
:1044D00012F0DACF13F00001FF5100011224106E28
:1044E000000E1320116E10C0E6FF11C0E6FF4EEC67
:1044F00023F0146E060EE15E14500001FE51106EA2
:10450000116AD950F90FE96EFF0EDA20EA6E1050E9
:10451000EE5E1150ED5A0001FE51106E116AD95035
:10452000FB0FE96EFF0EDA20EA6E1050EE261150F6
:10453000ED227FB2FED7FD0EDBCFF6FFFE0EDBCF06
:10454000F7FFF86AF29E04007F8E7F9C7F847F884D
:10455000550E7E6EAA0E7E6E7F820000400EDB50EE
:1045600002E0F28E01D0F29E0001080EFF6F0A00F9
:104570000001FE6B400E0001FE5D29E2D9CF10F074
:10458000DACF11F00001FE510F011024E96E000E88
:104590001120EA6EEF50F56E0F000001FF0714E1E5
:1045A000F29E04007F8E7F9C7F84550E7E6EAA0E45
:1045B0007E6E7F820000400EDB5002E0F28E01D062
:1045C000F29E0001080EFF6F0001FE2BD3D77F94EF
:1045D0000001FF6BD950FD0FE96EFF0EDA20EA6E85
:1045E000400EEE26000EED222CD7410EE15C02E2D9
:0E45F000E16AE552E16EE552E7CFD9FF120015
:0245FE00240E89
:10460000F66E000EF76E000EF86E01010900F5500F
:104610008F6F0900F550906F03E18F6701D03DD097
:104620000900F5508A6F0900F5508B6F0900F550AD
:104630008C6F09000900F550E96E0900F550EA6E2B
:10464000090009000900F5508D6F0900F5508E6FC3
:1046500009000900F6CF91F1F7CF92F1F8CF93F16D
:104660008AC1F6FF8BC1F7FF8CC1F8FF01018D53A2
:1046700002E18E5307E00900F550EE6E8D07F8E277
:104680008E07F9D791C1F6FF92C1F7FF93C1F8FFEA
:0C46900001018F07000E905BBFD71200E5
:04469C00D9CFE6FF8D
:1046A000DACFE6FFFA0EE3CFD9FFFB0EE3CFDAFF56
:1046B000FC0EE3CFE9FFFD0EE3CFEAFFE9CFF3FF06
:1046C000EACFF4FFF80EE35003E1F90EE35008E0FF
:1046D000F80EE30602E2F90EE306DECFEEFFF2D7B4
:1046E000FF0EE3CFDAFFE552FF0EE3CFD9FFE5522D
:1046F0001200FB0EE3CFF6FFFC0EE3CFF7FFFD0E3B
:10470000E3CFF8FFFE0EE3CFE9FFFF0EE3CFEAFFB2
:10471000E9CFF3FFEACFF4FFF90EE35003E1FA0E1D
:10472000E35009E0F90EE30602E2FA0EE30609009F
:08473000F5CFEEFFF1D71200F6
:0847380004500902F3CF00F068
:10474000F4CF01F00A02F3500126000EF420026EAD
:1047500004500B02F3500226000EF420036E0450A6
:104760000C02F350032605500902F3500126F450C1
:104770000222000E032205500A02F3500226F450D2
:10478000032205500B02F350032606500902F35092
:104790000226F450032206500A02F3500326075063
:0847A0000902F3500326120088
:0847A800036A026A016A006A5B
:1047B000200EE76ED89004360536063607360036EA
:1047C0000136023603360950005C0A5001580B507E
:1047D00002580C50035809E30950005E0A50015A70
:1047E0000B50025A0C50035A042AE72EE4D7120049
:1047F000000810192129313A424A525A636B737BDF
:10480000848C949CA5ADB5BDC5CED6DEE6EFF7FF92
:10481000000104080C11161B21282F363D454D566A
:104820005F68717A848E98A3AEB9C4CFDBE7F3FFDB
:104830000000006110612061006000630000000062
:104840001081408120812081108100813081008190
:1048500001100210031004100510061007100810B4
:10486000108200820082008200000081008100002E
:10487000036A026A100EE76ED890063607360236D3
:1048800003360B50025C0C50035805E30B50025EDC
:0C4890000C50035A062AE72EF0D7120045
:04489C0040010808C7
:1048A0000832010508021401050802080105080282
:1048B00004010508020201050802020103040202C4
:0448C00001020302EC
:0C48C400000EF36E00EE00F00E0E01D8A6
:1048D0001200EA6002D0EE6AFCD7F350E9601200E1
:0448E000EE6AFCD7A9
:0C48E4001DEE00F02DEE00F0F86A0F9CB5
:1048F000FFEC22F003EC00F0E1EC07F0FBD7120034
:1049000000000000010000000000000000000000A6
:024910000000A5
:020000040030CA
:0100000014EB
:0100010013EB
:0100020020DD
:010003001AE2
:010005008971
:0100080000F7
:01000900C036
:01000A000FE6
:01000B00E014
:01000C000FE4
:01000D0040B2
:0200000400F00A
:05000000000000007F7C
:00000001FF
